{
  "contractName": "SmartContract",
  "abi": [
    {
      "constant": true,
      "inputs": [],
      "name": "payer",
      "outputs": [
        {
          "name": "",
          "type": "address"
        }
      ],
      "payable": false,
      "stateMutability": "view",
      "type": "function"
    },
    {
      "constant": true,
      "inputs": [],
      "name": "balance",
      "outputs": [
        {
          "name": "",
          "type": "uint256"
        }
      ],
      "payable": false,
      "stateMutability": "view",
      "type": "function"
    },
    {
      "inputs": [
        {
          "name": "_payer",
          "type": "address"
        },
        {
          "name": "_payee",
          "type": "address"
        },
        {
          "name": "_balance",
          "type": "uint256"
        }
      ],
      "payable": false,
      "stateMutability": "nonpayable",
      "type": "constructor"
    },
    {
      "anonymous": false,
      "inputs": [
        {
          "indexed": true,
          "name": "_payer",
          "type": "address"
        },
        {
          "indexed": false,
          "name": "_payee",
          "type": "address"
        },
        {
          "indexed": false,
          "name": "_amount",
          "type": "uint256"
        }
      ],
      "name": "Transaction",
      "type": "event"
    },
    {
      "constant": false,
      "inputs": [
        {
          "name": "_verifier",
          "type": "string"
        },
        {
          "name": "_chunkPayment",
          "type": "uint256"
        },
        {
          "name": "_condition",
          "type": "string"
        }
      ],
      "name": "addVerifier",
      "outputs": [],
      "payable": false,
      "stateMutability": "nonpayable",
      "type": "function"
    },
    {
      "constant": false,
      "inputs": [],
      "name": "makePayments",
      "outputs": [],
      "payable": true,
      "stateMutability": "payable",
      "type": "function"
    },
    {
      "constant": false,
      "inputs": [],
      "name": "deactiveContract",
      "outputs": [],
      "payable": false,
      "stateMutability": "nonpayable",
      "type": "function"
    }
  ],
  "bytecode": "0x6080604052336000806101000a81548173ffffffffffffffffffffffffffffffffffffffff021916908373ffffffffffffffffffffffffffffffffffffffff160217905550600060055534801561005557600080fd5b506040516060806109678339810180604052606081101561007557600080fd5b8101908080519060200190929190805190602001909291908051906020019092919050505082600260006101000a81548173ffffffffffffffffffffffffffffffffffffffff021916908373ffffffffffffffffffffffffffffffffffffffff16021790555081600360006101000a81548173ffffffffffffffffffffffffffffffffffffffff021916908373ffffffffffffffffffffffffffffffffffffffff16021790555080670de0b6b3a7640000026001819055505050506108288061013f6000396000f3fe60806040526004361061004a5760003560e01c8063123119cd1461004f5780638c1e368b146100a6578063a5a99a7c146100bd578063b69ef8a814610226578063bff5755514610251575b600080fd5b34801561005b57600080fd5b5061006461025b565b604051808273ffffffffffffffffffffffffffffffffffffffff1673ffffffffffffffffffffffffffffffffffffffff16815260200191505060405180910390f35b3480156100b257600080fd5b506100bb610281565b005b3480156100c957600080fd5b50610224600480360360608110156100e057600080fd5b81019080803590602001906401000000008111156100fd57600080fd5b82018360208201111561010f57600080fd5b8035906020019184600183028401116401000000008311171561013157600080fd5b91908080601f016020809104026020016040519081016040528093929190818152602001838380828437600081840152601f19601f820116905080830192505050505050509192919290803590602001909291908035906020019064010000000081111561019e57600080fd5b8201836020820111156101b057600080fd5b803590602001918460018302840111640100000000831117156101d257600080fd5b91908080601f016020809104026020016040519081016040528093929190818152602001838380828437600081840152601f19601f82011690508083019250505050505050919291929050505061034d565b005b34801561023257600080fd5b5061023b6104c5565b6040518082815260200191505060405180910390f35b6102596104cb565b005b600260009054906101000a900473ffffffffffffffffffffffffffffffffffffffff1681565b6000809054906101000a900473ffffffffffffffffffffffffffffffffffffffff1673ffffffffffffffffffffffffffffffffffffffff163373ffffffffffffffffffffffffffffffffffffffff1614610343576040517f08c379a00000000000000000000000000000000000000000000000000000000081526004018080602001828103825260168152602001807f53656e646572206e6f7420617574686f72697a65642e0000000000000000000081525060200191505060405180910390fd5b6000600181905550565b6000809054906101000a900473ffffffffffffffffffffffffffffffffffffffff1673ffffffffffffffffffffffffffffffffffffffff163373ffffffffffffffffffffffffffffffffffffffff161461040f576040517f08c379a00000000000000000000000000000000000000000000000000000000081526004018080602001828103825260168152602001807f53656e646572206e6f7420617574686f72697a65642e0000000000000000000081525060200191505060405180910390fd5b60016005600082825401925050819055506040518060800160405280848152602001838152602001828152602001600015158152506004600060055481526020019081526020016000206000820151816000019080519060200190610475929190610735565b5060208201518160010155604082015181600201908051906020019061049c929190610735565b5060608201518160030160006101000a81548160ff021916908315150217905550905050505050565b60015481565b6000809054906101000a900473ffffffffffffffffffffffffffffffffffffffff1673ffffffffffffffffffffffffffffffffffffffff163373ffffffffffffffffffffffffffffffffffffffff161461058d576040517f08c379a00000000000000000000000000000000000000000000000000000000081526004018080602001828103825260168152602001807f53656e646572206e6f7420617574686f72697a65642e0000000000000000000081525060200191505060405180910390fd5b6001543411156105e8576040517f08c379a00000000000000000000000000000000000000000000000000000000081526004018080602001828103825260228152602001806107db6022913960400191505060405180910390fd5b600360009054906101000a900473ffffffffffffffffffffffffffffffffffffffff1673ffffffffffffffffffffffffffffffffffffffff166108fc349081150290604051600060405180830381858888f19350505050158015610650573d6000803e3d6000fd5b5061065a34610722565b600260009054906101000a900473ffffffffffffffffffffffffffffffffffffffff1673ffffffffffffffffffffffffffffffffffffffff167f7db7852b30fc413c4a90995f03d9f21e64c45d0ddc8324a8ce4c730a051cbf82600360009054906101000a900473ffffffffffffffffffffffffffffffffffffffff1634604051808373ffffffffffffffffffffffffffffffffffffffff1673ffffffffffffffffffffffffffffffffffffffff1681526020018281526020019250505060405180910390a2565b8060016000828254039250508190555050565b828054600181600116156101000203166002900490600052602060002090601f016020900481019282601f1061077657805160ff19168380011785556107a4565b828001600101855582156107a4579182015b828111156107a3578251825591602001919060010190610788565b5b5090506107b191906107b5565b5090565b6107d791905b808211156107d35760008160009055506001016107bb565b5090565b9056fe496e73756666696369656e742066756e6420666f7220746865207061796d656e742ea165627a7a723058204d125ff25f337458346627bf1d786bcc61bcb0852d2e21526809745c9266a1f70029",
  "source": "pragma solidity ^0.5.0;\n\ncontract SmartContract {\n\n    address owner = msg.sender;\n\n    uint256 public balance; // Unit in ether\n    address public payer;\n    address payable payee;\n    //string internal contents;\n\n    struct Verification {\n        string verifier;\n        uint256 chunkPayment;\n        string condition;\n        bool state;\n\n    }\n\n    mapping(uint => Verification) verifications;\n    uint verifierCount = 0;\n\n    // restrict access to payer\n    modifier onlyOwner() {\n        require(msg.sender == owner,\n        \"Sender not authorized.\");\n        _;\n    }\n\n    // modifier isActive() {\n    //     require(balance>0,\n    //     \"Contract has been paid up or deactived.\");\n    //     _;\n    // }\n\n    event Transaction (\n        address indexed _payer,\n        address _payee,\n        uint256 _amount\n    );\n\n    constructor(  //string memory _contents,\n        address _payer,\n        address payable _payee,\n        uint256 _balance)\n        public {\n\n            payer = _payer;\n            payee = _payee;\n            balance = 1 ether * _balance;\n            //contents = _contents;\n\n        }\n\n    function addVerifier(\n        string memory _verifier,\n        uint256 _chunkPayment,\n        string memory _condition)\n        public onlyOwner {\n\n        verifierCount += 1;\n        verifications[verifierCount] = Verification(_verifier, _chunkPayment, _condition, false);\n\n    }\n\n    function makePayments() public payable onlyOwner {\n\n        require(msg.value <= balance,\n        \"Insufficient fund for the payment.\");\n\n        // transfer payments from payer to payee\n        payee.transfer(msg.value);\n\n        // update balance\n        updateBalance(msg.value);\n        emit Transaction(payer, payee, msg.value);\n\n    }\n\n    function updateBalance(uint256 _amount) internal {\n        balance -= _amount;\n    }\n\n    function deactiveContract() public onlyOwner {\n        balance = 0;\n    }\n\n\n\n}",
  "sourcePath": "/Users/susankid/Documents/git-demo/Truffle-demo/contracts/SmartContract.sol",
  "compiler": {
    "name": "solc",
    "version": "0.5.8+commit.23d335f2.Emscripten.clang"
  },
  "schemaVersion": "3.0.12",
  "updatedAt": "2019-09-28T13:45:23.342Z",
  "devdoc": {
    "methods": {}
  },
  "userdoc": {
    "methods": {}
  }
}